{
  "contracts/randomGenerator.sol": {
    "newerRandom": {
      "abi": [
        {
          "inputs": [],
          "name": "generatedNumber",
          "outputs": [
            {
              "internalType": "uint256",
              "name": "",
              "type": "uint256"
            }
          ],
          "stateMutability": "view",
          "type": "function"
        },
        {
          "inputs": [],
          "name": "getNextRandom",
          "outputs": [
            {
              "internalType": "uint256",
              "name": "_randomNumber",
              "type": "uint256"
            }
          ],
          "stateMutability": "nonpayable",
          "type": "function"
        },
        {
          "inputs": [],
          "name": "nextIndex",
          "outputs": [
            {
              "internalType": "uint256",
              "name": "",
              "type": "uint256"
            }
          ],
          "stateMutability": "view",
          "type": "function"
        },
        {
          "inputs": [
            {
              "internalType": "uint256",
              "name": "",
              "type": "uint256"
            }
          ],
          "name": "recorded",
          "outputs": [
            {
              "internalType": "uint256",
              "name": "",
              "type": "uint256"
            }
          ],
          "stateMutability": "view",
          "type": "function"
        }
      ],
      "evm": {
        "bytecode": {
          "linkReferences": {},
          "object": "60806040526001805534801561001457600080fd5b50610684806100246000396000f3fe608060405234801561001057600080fd5b506004361061004c5760003560e01c806360b2267b146100515780639fe44b1114610081578063e1b27b851461009f578063fc7e9c6f146100bd575b600080fd5b61006b600480360381019061006691906102e7565b6100db565b60405161007891906103f5565b60405180910390f35b6100896100f3565b60405161009691906103f5565b60405180910390f35b6100a76102c6565b6040516100b491906103f5565b60405180910390f35b6100c56102cc565b6040516100d291906103f5565b60405180910390f35b60006020528060005260406000206000915090505481565b60006064600154111561013b576040517f08c379a0000000000000000000000000000000000000000000000000000000008152600401610132906103d5565b60405180910390fd5b6064600154101561026557600060015460018054606461015b9190610477565b6101659190610421565b426001436101739190610477565b403360015460405160200161018b9493929190610387565b6040516020818303038152906040528051906020012060001c6101ae9190610572565b6101b89190610421565b9050600080600083815260200190815260200160002054116101da57806101ee565b600080828152602001908152602001600020545b91508160028190555060008060006001548152602001908152602001600020541161021b57600154610231565b6000806001548152602001908152602001600020545b600080838152602001908152602001600020819055506001600081548092919061025a906104f1565b9190505550506102c3565b6000806000600154815260200190815260200160002054116102895760015461029f565b6000806001548152602001908152602001600020545b6002819055506002549050600160008154809291906102bd906104f1565b91905055505b90565b60025481565b60015481565b6000813590506102e181610637565b92915050565b6000602082840312156102f957600080fd5b6000610307848285016102d2565b91505092915050565b61032161031c826104ab565b61053a565b82525050565b610338610333826104bd565b61054c565b82525050565b600061034b601083610410565b91506103568261060e565b602082019050919050565b61036a816104e7565b82525050565b61038161037c826104e7565b610568565b82525050565b60006103938287610370565b6020820191506103a38286610327565b6020820191506103b38285610310565b6014820191506103c38284610370565b60208201915081905095945050505050565b600060208201905081810360008301526103ee8161033e565b9050919050565b600060208201905061040a6000830184610361565b92915050565b600082825260208201905092915050565b600061042c826104e7565b9150610437836104e7565b9250827fffffffffffffffffffffffffffffffffffffffffffffffffffffffffffffffff0382111561046c5761046b6105a3565b5b828201905092915050565b6000610482826104e7565b915061048d836104e7565b9250828210156104a05761049f6105a3565b5b828203905092915050565b60006104b6826104c7565b9050919050565b6000819050919050565b600073ffffffffffffffffffffffffffffffffffffffff82169050919050565b6000819050919050565b60006104fc826104e7565b91507fffffffffffffffffffffffffffffffffffffffffffffffffffffffffffffffff82141561052f5761052e6105a3565b5b600182019050919050565b600061054582610556565b9050919050565b6000819050919050565b600061056182610601565b9050919050565b6000819050919050565b600061057d826104e7565b9150610588836104e7565b925082610598576105976105d2565b5b828206905092915050565b7f4e487b7100000000000000000000000000000000000000000000000000000000600052601160045260246000fd5b7f4e487b7100000000000000000000000000000000000000000000000000000000600052601260045260246000fd5b60008160601b9050919050565b7f5573656420657665727920696e64657800000000000000000000000000000000600082015250565b610640816104e7565b811461064b57600080fd5b5056fea264697066735822122070c3fcf55d98ec4bdbf866310f5fe69861e714fe9f5a9cf252a2ae28a87a06ae64736f6c63430008040033",
          "opcodes": "PUSH1 0x80 PUSH1 0x40 MSTORE PUSH1 0x1 DUP1 SSTORE CALLVALUE DUP1 ISZERO PUSH2 0x14 JUMPI PUSH1 0x0 DUP1 REVERT JUMPDEST POP PUSH2 0x684 DUP1 PUSH2 0x24 PUSH1 0x0 CODECOPY PUSH1 0x0 RETURN INVALID PUSH1 0x80 PUSH1 0x40 MSTORE CALLVALUE DUP1 ISZERO PUSH2 0x10 JUMPI PUSH1 0x0 DUP1 REVERT JUMPDEST POP PUSH1 0x4 CALLDATASIZE LT PUSH2 0x4C JUMPI PUSH1 0x0 CALLDATALOAD PUSH1 0xE0 SHR DUP1 PUSH4 0x60B2267B EQ PUSH2 0x51 JUMPI DUP1 PUSH4 0x9FE44B11 EQ PUSH2 0x81 JUMPI DUP1 PUSH4 0xE1B27B85 EQ PUSH2 0x9F JUMPI DUP1 PUSH4 0xFC7E9C6F EQ PUSH2 0xBD JUMPI JUMPDEST PUSH1 0x0 DUP1 REVERT JUMPDEST PUSH2 0x6B PUSH1 0x4 DUP1 CALLDATASIZE SUB DUP2 ADD SWAP1 PUSH2 0x66 SWAP2 SWAP1 PUSH2 0x2E7 JUMP JUMPDEST PUSH2 0xDB JUMP JUMPDEST PUSH1 0x40 MLOAD PUSH2 0x78 SWAP2 SWAP1 PUSH2 0x3F5 JUMP JUMPDEST PUSH1 0x40 MLOAD DUP1 SWAP2 SUB SWAP1 RETURN JUMPDEST PUSH2 0x89 PUSH2 0xF3 JUMP JUMPDEST PUSH1 0x40 MLOAD PUSH2 0x96 SWAP2 SWAP1 PUSH2 0x3F5 JUMP JUMPDEST PUSH1 0x40 MLOAD DUP1 SWAP2 SUB SWAP1 RETURN JUMPDEST PUSH2 0xA7 PUSH2 0x2C6 JUMP JUMPDEST PUSH1 0x40 MLOAD PUSH2 0xB4 SWAP2 SWAP1 PUSH2 0x3F5 JUMP JUMPDEST PUSH1 0x40 MLOAD DUP1 SWAP2 SUB SWAP1 RETURN JUMPDEST PUSH2 0xC5 PUSH2 0x2CC JUMP JUMPDEST PUSH1 0x40 MLOAD PUSH2 0xD2 SWAP2 SWAP1 PUSH2 0x3F5 JUMP JUMPDEST PUSH1 0x40 MLOAD DUP1 SWAP2 SUB SWAP1 RETURN JUMPDEST PUSH1 0x0 PUSH1 0x20 MSTORE DUP1 PUSH1 0x0 MSTORE PUSH1 0x40 PUSH1 0x0 KECCAK256 PUSH1 0x0 SWAP2 POP SWAP1 POP SLOAD DUP2 JUMP JUMPDEST PUSH1 0x0 PUSH1 0x64 PUSH1 0x1 SLOAD GT ISZERO PUSH2 0x13B JUMPI PUSH1 0x40 MLOAD PUSH32 0x8C379A000000000000000000000000000000000000000000000000000000000 DUP2 MSTORE PUSH1 0x4 ADD PUSH2 0x132 SWAP1 PUSH2 0x3D5 JUMP JUMPDEST PUSH1 0x40 MLOAD DUP1 SWAP2 SUB SWAP1 REVERT JUMPDEST PUSH1 0x64 PUSH1 0x1 SLOAD LT ISZERO PUSH2 0x265 JUMPI PUSH1 0x0 PUSH1 0x1 SLOAD PUSH1 0x1 DUP1 SLOAD PUSH1 0x64 PUSH2 0x15B SWAP2 SWAP1 PUSH2 0x477 JUMP JUMPDEST PUSH2 0x165 SWAP2 SWAP1 PUSH2 0x421 JUMP JUMPDEST TIMESTAMP PUSH1 0x1 NUMBER PUSH2 0x173 SWAP2 SWAP1 PUSH2 0x477 JUMP JUMPDEST BLOCKHASH CALLER PUSH1 0x1 SLOAD PUSH1 0x40 MLOAD PUSH1 0x20 ADD PUSH2 0x18B SWAP5 SWAP4 SWAP3 SWAP2 SWAP1 PUSH2 0x387 JUMP JUMPDEST PUSH1 0x40 MLOAD PUSH1 0x20 DUP2 DUP4 SUB SUB DUP2 MSTORE SWAP1 PUSH1 0x40 MSTORE DUP1 MLOAD SWAP1 PUSH1 0x20 ADD KECCAK256 PUSH1 0x0 SHR PUSH2 0x1AE SWAP2 SWAP1 PUSH2 0x572 JUMP JUMPDEST PUSH2 0x1B8 SWAP2 SWAP1 PUSH2 0x421 JUMP JUMPDEST SWAP1 POP PUSH1 0x0 DUP1 PUSH1 0x0 DUP4 DUP2 MSTORE PUSH1 0x20 ADD SWAP1 DUP2 MSTORE PUSH1 0x20 ADD PUSH1 0x0 KECCAK256 SLOAD GT PUSH2 0x1DA JUMPI DUP1 PUSH2 0x1EE JUMP JUMPDEST PUSH1 0x0 DUP1 DUP3 DUP2 MSTORE PUSH1 0x20 ADD SWAP1 DUP2 MSTORE PUSH1 0x20 ADD PUSH1 0x0 KECCAK256 SLOAD JUMPDEST SWAP2 POP DUP2 PUSH1 0x2 DUP2 SWAP1 SSTORE POP PUSH1 0x0 DUP1 PUSH1 0x0 PUSH1 0x1 SLOAD DUP2 MSTORE PUSH1 0x20 ADD SWAP1 DUP2 MSTORE PUSH1 0x20 ADD PUSH1 0x0 KECCAK256 SLOAD GT PUSH2 0x21B JUMPI PUSH1 0x1 SLOAD PUSH2 0x231 JUMP JUMPDEST PUSH1 0x0 DUP1 PUSH1 0x1 SLOAD DUP2 MSTORE PUSH1 0x20 ADD SWAP1 DUP2 MSTORE PUSH1 0x20 ADD PUSH1 0x0 KECCAK256 SLOAD JUMPDEST PUSH1 0x0 DUP1 DUP4 DUP2 MSTORE PUSH1 0x20 ADD SWAP1 DUP2 MSTORE PUSH1 0x20 ADD PUSH1 0x0 KECCAK256 DUP2 SWAP1 SSTORE POP PUSH1 0x1 PUSH1 0x0 DUP2 SLOAD DUP1 SWAP3 SWAP2 SWAP1 PUSH2 0x25A SWAP1 PUSH2 0x4F1 JUMP JUMPDEST SWAP2 SWAP1 POP SSTORE POP POP PUSH2 0x2C3 JUMP JUMPDEST PUSH1 0x0 DUP1 PUSH1 0x0 PUSH1 0x1 SLOAD DUP2 MSTORE PUSH1 0x20 ADD SWAP1 DUP2 MSTORE PUSH1 0x20 ADD PUSH1 0x0 KECCAK256 SLOAD GT PUSH2 0x289 JUMPI PUSH1 0x1 SLOAD PUSH2 0x29F JUMP JUMPDEST PUSH1 0x0 DUP1 PUSH1 0x1 SLOAD DUP2 MSTORE PUSH1 0x20 ADD SWAP1 DUP2 MSTORE PUSH1 0x20 ADD PUSH1 0x0 KECCAK256 SLOAD JUMPDEST PUSH1 0x2 DUP2 SWAP1 SSTORE POP PUSH1 0x2 SLOAD SWAP1 POP PUSH1 0x1 PUSH1 0x0 DUP2 SLOAD DUP1 SWAP3 SWAP2 SWAP1 PUSH2 0x2BD SWAP1 PUSH2 0x4F1 JUMP JUMPDEST SWAP2 SWAP1 POP SSTORE POP JUMPDEST SWAP1 JUMP JUMPDEST PUSH1 0x2 SLOAD DUP2 JUMP JUMPDEST PUSH1 0x1 SLOAD DUP2 JUMP JUMPDEST PUSH1 0x0 DUP2 CALLDATALOAD SWAP1 POP PUSH2 0x2E1 DUP2 PUSH2 0x637 JUMP JUMPDEST SWAP3 SWAP2 POP POP JUMP JUMPDEST PUSH1 0x0 PUSH1 0x20 DUP3 DUP5 SUB SLT ISZERO PUSH2 0x2F9 JUMPI PUSH1 0x0 DUP1 REVERT JUMPDEST PUSH1 0x0 PUSH2 0x307 DUP5 DUP3 DUP6 ADD PUSH2 0x2D2 JUMP JUMPDEST SWAP2 POP POP SWAP3 SWAP2 POP POP JUMP JUMPDEST PUSH2 0x321 PUSH2 0x31C DUP3 PUSH2 0x4AB JUMP JUMPDEST PUSH2 0x53A JUMP JUMPDEST DUP3 MSTORE POP POP JUMP JUMPDEST PUSH2 0x338 PUSH2 0x333 DUP3 PUSH2 0x4BD JUMP JUMPDEST PUSH2 0x54C JUMP JUMPDEST DUP3 MSTORE POP POP JUMP JUMPDEST PUSH1 0x0 PUSH2 0x34B PUSH1 0x10 DUP4 PUSH2 0x410 JUMP JUMPDEST SWAP2 POP PUSH2 0x356 DUP3 PUSH2 0x60E JUMP JUMPDEST PUSH1 0x20 DUP3 ADD SWAP1 POP SWAP2 SWAP1 POP JUMP JUMPDEST PUSH2 0x36A DUP2 PUSH2 0x4E7 JUMP JUMPDEST DUP3 MSTORE POP POP JUMP JUMPDEST PUSH2 0x381 PUSH2 0x37C DUP3 PUSH2 0x4E7 JUMP JUMPDEST PUSH2 0x568 JUMP JUMPDEST DUP3 MSTORE POP POP JUMP JUMPDEST PUSH1 0x0 PUSH2 0x393 DUP3 DUP8 PUSH2 0x370 JUMP JUMPDEST PUSH1 0x20 DUP3 ADD SWAP2 POP PUSH2 0x3A3 DUP3 DUP7 PUSH2 0x327 JUMP JUMPDEST PUSH1 0x20 DUP3 ADD SWAP2 POP PUSH2 0x3B3 DUP3 DUP6 PUSH2 0x310 JUMP JUMPDEST PUSH1 0x14 DUP3 ADD SWAP2 POP PUSH2 0x3C3 DUP3 DUP5 PUSH2 0x370 JUMP JUMPDEST PUSH1 0x20 DUP3 ADD SWAP2 POP DUP2 SWAP1 POP SWAP6 SWAP5 POP POP POP POP POP JUMP JUMPDEST PUSH1 0x0 PUSH1 0x20 DUP3 ADD SWAP1 POP DUP2 DUP2 SUB PUSH1 0x0 DUP4 ADD MSTORE PUSH2 0x3EE DUP2 PUSH2 0x33E JUMP JUMPDEST SWAP1 POP SWAP2 SWAP1 POP JUMP JUMPDEST PUSH1 0x0 PUSH1 0x20 DUP3 ADD SWAP1 POP PUSH2 0x40A PUSH1 0x0 DUP4 ADD DUP5 PUSH2 0x361 JUMP JUMPDEST SWAP3 SWAP2 POP POP JUMP JUMPDEST PUSH1 0x0 DUP3 DUP3 MSTORE PUSH1 0x20 DUP3 ADD SWAP1 POP SWAP3 SWAP2 POP POP JUMP JUMPDEST PUSH1 0x0 PUSH2 0x42C DUP3 PUSH2 0x4E7 JUMP JUMPDEST SWAP2 POP PUSH2 0x437 DUP4 PUSH2 0x4E7 JUMP JUMPDEST SWAP3 POP DUP3 PUSH32 0xFFFFFFFFFFFFFFFFFFFFFFFFFFFFFFFFFFFFFFFFFFFFFFFFFFFFFFFFFFFFFFFF SUB DUP3 GT ISZERO PUSH2 0x46C JUMPI PUSH2 0x46B PUSH2 0x5A3 JUMP JUMPDEST JUMPDEST DUP3 DUP3 ADD SWAP1 POP SWAP3 SWAP2 POP POP JUMP JUMPDEST PUSH1 0x0 PUSH2 0x482 DUP3 PUSH2 0x4E7 JUMP JUMPDEST SWAP2 POP PUSH2 0x48D DUP4 PUSH2 0x4E7 JUMP JUMPDEST SWAP3 POP DUP3 DUP3 LT ISZERO PUSH2 0x4A0 JUMPI PUSH2 0x49F PUSH2 0x5A3 JUMP JUMPDEST JUMPDEST DUP3 DUP3 SUB SWAP1 POP SWAP3 SWAP2 POP POP JUMP JUMPDEST PUSH1 0x0 PUSH2 0x4B6 DUP3 PUSH2 0x4C7 JUMP JUMPDEST SWAP1 POP SWAP2 SWAP1 POP JUMP JUMPDEST PUSH1 0x0 DUP2 SWAP1 POP SWAP2 SWAP1 POP JUMP JUMPDEST PUSH1 0x0 PUSH20 0xFFFFFFFFFFFFFFFFFFFFFFFFFFFFFFFFFFFFFFFF DUP3 AND SWAP1 POP SWAP2 SWAP1 POP JUMP JUMPDEST PUSH1 0x0 DUP2 SWAP1 POP SWAP2 SWAP1 POP JUMP JUMPDEST PUSH1 0x0 PUSH2 0x4FC DUP3 PUSH2 0x4E7 JUMP JUMPDEST SWAP2 POP PUSH32 0xFFFFFFFFFFFFFFFFFFFFFFFFFFFFFFFFFFFFFFFFFFFFFFFFFFFFFFFFFFFFFFFF DUP3 EQ ISZERO PUSH2 0x52F JUMPI PUSH2 0x52E PUSH2 0x5A3 JUMP JUMPDEST JUMPDEST PUSH1 0x1 DUP3 ADD SWAP1 POP SWAP2 SWAP1 POP JUMP JUMPDEST PUSH1 0x0 PUSH2 0x545 DUP3 PUSH2 0x556 JUMP JUMPDEST SWAP1 POP SWAP2 SWAP1 POP JUMP JUMPDEST PUSH1 0x0 DUP2 SWAP1 POP SWAP2 SWAP1 POP JUMP JUMPDEST PUSH1 0x0 PUSH2 0x561 DUP3 PUSH2 0x601 JUMP JUMPDEST SWAP1 POP SWAP2 SWAP1 POP JUMP JUMPDEST PUSH1 0x0 DUP2 SWAP1 POP SWAP2 SWAP1 POP JUMP JUMPDEST PUSH1 0x0 PUSH2 0x57D DUP3 PUSH2 0x4E7 JUMP JUMPDEST SWAP2 POP PUSH2 0x588 DUP4 PUSH2 0x4E7 JUMP JUMPDEST SWAP3 POP DUP3 PUSH2 0x598 JUMPI PUSH2 0x597 PUSH2 0x5D2 JUMP JUMPDEST JUMPDEST DUP3 DUP3 MOD SWAP1 POP SWAP3 SWAP2 POP POP JUMP JUMPDEST PUSH32 0x4E487B7100000000000000000000000000000000000000000000000000000000 PUSH1 0x0 MSTORE PUSH1 0x11 PUSH1 0x4 MSTORE PUSH1 0x24 PUSH1 0x0 REVERT JUMPDEST PUSH32 0x4E487B7100000000000000000000000000000000000000000000000000000000 PUSH1 0x0 MSTORE PUSH1 0x12 PUSH1 0x4 MSTORE PUSH1 0x24 PUSH1 0x0 REVERT JUMPDEST PUSH1 0x0 DUP2 PUSH1 0x60 SHL SWAP1 POP SWAP2 SWAP1 POP JUMP JUMPDEST PUSH32 0x5573656420657665727920696E64657800000000000000000000000000000000 PUSH1 0x0 DUP3 ADD MSTORE POP JUMP JUMPDEST PUSH2 0x640 DUP2 PUSH2 0x4E7 JUMP JUMPDEST DUP2 EQ PUSH2 0x64B JUMPI PUSH1 0x0 DUP1 REVERT JUMPDEST POP JUMP INVALID LOG2 PUSH5 0x6970667358 0x22 SLT KECCAK256 PUSH17 0xC3FCF55D98EC4BDBF866310F5FE69861E7 EQ INVALID SWAP16 GAS SWAP13 CALLCODE MSTORE LOG2 0xAE 0x28 0xA8 PUSH27 0x6AE64736F6C634300080400330000000000000000000000000000 "
        },
        "methodIdentifiers": {
          "generatedNumber()": "e1b27b85",
          "getNextRandom()": "9fe44b11",
          "nextIndex()": "fc7e9c6f",
          "recorded(uint256)": "60b2267b"
        }
      }
    }
  }
}