{
  "_format": "hh-sol-artifact-1",
  "contractName": "newerRandom",
  "sourceName": "contracts/randomGenerator.sol",
  "abi": [
    {
      "inputs": [],
      "name": "generatedNumber",
      "outputs": [
        {
          "internalType": "uint256",
          "name": "",
          "type": "uint256"
        }
      ],
      "stateMutability": "view",
      "type": "function"
    },
    {
      "inputs": [],
      "name": "getNextRandom",
      "outputs": [
        {
          "internalType": "uint256",
          "name": "_randomNumber",
          "type": "uint256"
        }
      ],
      "stateMutability": "nonpayable",
      "type": "function"
    },
    {
      "inputs": [],
      "name": "nextIndex",
      "outputs": [
        {
          "internalType": "uint256",
          "name": "",
          "type": "uint256"
        }
      ],
      "stateMutability": "view",
      "type": "function"
    },
    {
      "inputs": [
        {
          "internalType": "uint256",
          "name": "",
          "type": "uint256"
        }
      ],
      "name": "recorded",
      "outputs": [
        {
          "internalType": "uint256",
          "name": "",
          "type": "uint256"
        }
      ],
      "stateMutability": "view",
      "type": "function"
    }
  ],
  "bytecode": "0x60806040526001805534801561001457600080fd5b50610684806100246000396000f3fe608060405234801561001057600080fd5b506004361061004c5760003560e01c806360b2267b146100515780639fe44b1114610081578063e1b27b851461009f578063fc7e9c6f146100bd575b600080fd5b61006b600480360381019061006691906102e7565b6100db565b60405161007891906103f5565b60405180910390f35b6100896100f3565b60405161009691906103f5565b60405180910390f35b6100a76102c6565b6040516100b491906103f5565b60405180910390f35b6100c56102cc565b6040516100d291906103f5565b60405180910390f35b60006020528060005260406000206000915090505481565b60006064600154111561013b576040517f08c379a0000000000000000000000000000000000000000000000000000000008152600401610132906103d5565b60405180910390fd5b6064600154101561026557600060015460018054606461015b9190610477565b6101659190610421565b426001436101739190610477565b403360015460405160200161018b9493929190610387565b6040516020818303038152906040528051906020012060001c6101ae9190610572565b6101b89190610421565b9050600080600083815260200190815260200160002054116101da57806101ee565b600080828152602001908152602001600020545b91508160028190555060008060006001548152602001908152602001600020541161021b57600154610231565b6000806001548152602001908152602001600020545b600080838152602001908152602001600020819055506001600081548092919061025a906104f1565b9190505550506102c3565b6000806000600154815260200190815260200160002054116102895760015461029f565b6000806001548152602001908152602001600020545b6002819055506002549050600160008154809291906102bd906104f1565b91905055505b90565b60025481565b60015481565b6000813590506102e181610637565b92915050565b6000602082840312156102f957600080fd5b6000610307848285016102d2565b91505092915050565b61032161031c826104ab565b61053a565b82525050565b610338610333826104bd565b61054c565b82525050565b600061034b601083610410565b91506103568261060e565b602082019050919050565b61036a816104e7565b82525050565b61038161037c826104e7565b610568565b82525050565b60006103938287610370565b6020820191506103a38286610327565b6020820191506103b38285610310565b6014820191506103c38284610370565b60208201915081905095945050505050565b600060208201905081810360008301526103ee8161033e565b9050919050565b600060208201905061040a6000830184610361565b92915050565b600082825260208201905092915050565b600061042c826104e7565b9150610437836104e7565b9250827fffffffffffffffffffffffffffffffffffffffffffffffffffffffffffffffff0382111561046c5761046b6105a3565b5b828201905092915050565b6000610482826104e7565b915061048d836104e7565b9250828210156104a05761049f6105a3565b5b828203905092915050565b60006104b6826104c7565b9050919050565b6000819050919050565b600073ffffffffffffffffffffffffffffffffffffffff82169050919050565b6000819050919050565b60006104fc826104e7565b91507fffffffffffffffffffffffffffffffffffffffffffffffffffffffffffffffff82141561052f5761052e6105a3565b5b600182019050919050565b600061054582610556565b9050919050565b6000819050919050565b600061056182610601565b9050919050565b6000819050919050565b600061057d826104e7565b9150610588836104e7565b925082610598576105976105d2565b5b828206905092915050565b7f4e487b7100000000000000000000000000000000000000000000000000000000600052601160045260246000fd5b7f4e487b7100000000000000000000000000000000000000000000000000000000600052601260045260246000fd5b60008160601b9050919050565b7f5573656420657665727920696e64657800000000000000000000000000000000600082015250565b610640816104e7565b811461064b57600080fd5b5056fea264697066735822122070c3fcf55d98ec4bdbf866310f5fe69861e714fe9f5a9cf252a2ae28a87a06ae64736f6c63430008040033",
  "linkReferences": {},
  "deployedLinkReferences": {}
}