{
  "_format": "hh-sol-artifact-1",
  "contractName": "newerRandom",
  "sourceName": "contracts/randomGenerator.sol",
  "abi": [
    {
      "inputs": [
        {
          "internalType": "uint256",
          "name": "inclusiveLowerBorder_",
          "type": "uint256"
        },
        {
          "internalType": "uint256",
          "name": "inclusiveUpperBorder_",
          "type": "uint256"
        }
      ],
      "stateMutability": "nonpayable",
      "type": "constructor"
    },
    {
      "inputs": [],
      "name": "getNextRandom",
      "outputs": [
        {
          "internalType": "uint256",
          "name": "_randomNumber",
          "type": "uint256"
        }
      ],
      "stateMutability": "nonpayable",
      "type": "function"
    },
    {
      "inputs": [],
      "name": "lastGeneratedNumber",
      "outputs": [
        {
          "internalType": "uint256",
          "name": "",
          "type": "uint256"
        }
      ],
      "stateMutability": "view",
      "type": "function"
    }
  ],
  "bytecode": "0x60c060405234801561001057600080fd5b506040516106f13803806106f183398181016040528101906100329190610065565b81608081815250508060a081815250508160018190555050506100c2565b60008151905061005f816100ab565b92915050565b6000806040838503121561007857600080fd5b600061008685828601610050565b925050602061009785828601610050565b9150509250929050565b6000819050919050565b6100b4816100a1565b81146100bf57600080fd5b50565b60805160a0516106016100f060003960008181607b0152818160e001526101130152600050506106016000f3fe608060405234801561001057600080fd5b50600436106100365760003560e01c80639fe44b111461003b578063b23c181b14610059575b600080fd5b610043610077565b6040516100509190610389565b60405180910390f35b61006161029e565b60405161006e9190610389565b60405180910390f35b60007f000000000000000000000000000000000000000000000000000000000000000060015411156100de576040517f08c379a00000000000000000000000000000000000000000000000000000000081526004016100d590610369565b60405180910390fd5b7f0000000000000000000000000000000000000000000000000000000000000000600154101561023f576000600154600180547f000000000000000000000000000000000000000000000000000000000000000061013c919061040b565b61014691906103b5565b42600143610154919061040b565b403360015460405160200161016c949392919061031b565b6040516020818303038152906040528051906020012060001c61018f9190610506565b61019991906103b5565b9050600080600083815260200190815260200160002054116101bb57806101cf565b600080828152602001908152602001600020545b91506000806000600154815260200190815260200160002054116101f55760015461020b565b6000806001548152602001908152602001600020545b600080838152602001908152602001600020819055506001600081548092919061023490610485565b919050555050610294565b60008060006001548152602001908152602001600020541161026357600154610279565b6000806001548152602001908152602001600020545b90506001600081548092919061028e90610485565b91905055505b8060028190555090565b60025481565b6102b56102b08261043f565b6104ce565b82525050565b6102cc6102c782610451565b6104e0565b82525050565b60006102df6010836103a4565b91506102ea826105a2565b602082019050919050565b6102fe8161047b565b82525050565b6103156103108261047b565b6104fc565b82525050565b60006103278287610304565b60208201915061033782866102bb565b60208201915061034782856102a4565b6014820191506103578284610304565b60208201915081905095945050505050565b60006020820190508181036000830152610382816102d2565b9050919050565b600060208201905061039e60008301846102f5565b92915050565b600082825260208201905092915050565b60006103c08261047b565b91506103cb8361047b565b9250827fffffffffffffffffffffffffffffffffffffffffffffffffffffffffffffffff03821115610400576103ff610537565b5b828201905092915050565b60006104168261047b565b91506104218361047b565b92508282101561043457610433610537565b5b828203905092915050565b600061044a8261045b565b9050919050565b6000819050919050565b600073ffffffffffffffffffffffffffffffffffffffff82169050919050565b6000819050919050565b60006104908261047b565b91507fffffffffffffffffffffffffffffffffffffffffffffffffffffffffffffffff8214156104c3576104c2610537565b5b600182019050919050565b60006104d9826104ea565b9050919050565b6000819050919050565b60006104f582610595565b9050919050565b6000819050919050565b60006105118261047b565b915061051c8361047b565b92508261052c5761052b610566565b5b828206905092915050565b7f4e487b7100000000000000000000000000000000000000000000000000000000600052601160045260246000fd5b7f4e487b7100000000000000000000000000000000000000000000000000000000600052601260045260246000fd5b60008160601b9050919050565b7f5573656420657665727920696e6465780000000000000000000000000000000060008201525056fea26469706673582212205e1f6c70bec6711115796b536c5ac5b96dbdb4103b4380173db4b57c10fe8fdc64736f6c63430008040033",
  "linkReferences": {},
  "deployedLinkReferences": {}
}